:100000000C942A000C9447000C9447000C94470071
:100010000C9447000C9447000C9447000C94470044
:100020000C9447000C9447000C9447000C94470034
:100030000C9447000C9447000C9447000C94470024
:100040000C9447000C9447000C9447000C94470014
:100050000C94470011241FBECFE5D8E0DEBFCDBF12
:1000600010E0A0E6B0E0EEE2FCE002C005900D92E8
:10007000AC36B107D9F710E0ACE6B0E001C01D9294
:10008000AD36B107E1F70E9494050C9415060C9467
:1000900000003E9A3F98389A3D98359A309A319AA6
:1000A000329A3398379A0895FC01369A349BFECFE2
:1000B00024B135B184EF91E0AC01249FC001259FAC
:1000C000900D349F900D1124892F869586958083FD
:1000D0001182089580E063E040E00E94F4010895F9
:1000E00080E063E041E00E94F401089580E063E075
:1000F00041E00E94F40180E197E229E130E0F9015A
:100100003197F1F70197D9F780E063E040E00E9472
:10011000F401089580E063E041E00E946F010895DA
:10012000813029F40E9476000E94200508958823DA
:1001300041F40E94200584EC99E00197F1F70E94B8
:1001400022050895813059F40E9415056EE170E092
:1001500080E090E00E94EC030E941C010895882337
:1001600009F437980895813019F40E940B05089519
:10017000882341F40E94200584EC99E00197F1F76F
:100180000E940D050895813019F40E942F050895ED
:10019000882341F40E940B0584EC99E00197F1F764
:1001A0000E94290508950E944F0580936C000E94CB
:1001B000AD0388EA91E60197F1F70E94A9048091C6
:1001C0006C00813411F481E003C0813621F480E0B9
:1001D0000E94C3000895823411F481E003C0823686
:1001E00021F480E00E94B3000895833411F481E08B
:1001F00003C0833621F480E00E94A2000895843475
:1002000021F481E00E9490000895843619F480E082
:100210000E94900008950E9435050E9409050E94E1
:1002200013050E941E050E94C2040E944C010E94F8
:100230008A000E949105089582E063E040E00E94F8
:10024000F40182E064E040E00E94F4010895882314
:1002500019F08130B1F40BC082E063E041E00E940C
:10026000F40182E064E040E00E94F401089582E03D
:1002700063E040E00E94F40182E064E041E00E941B
:10028000F40108950E944B0508959AE0899F802DFE
:1002900011240E944205089582E063E041E00E943B
:1002A0006F0182E064E041E00E946F0181E063E061
:1002B00041E00E946F010E943B050895813049F0A2
:1002C000813028F0823039F0833041F406C06ABBB7
:1002D000089567BB089564BB089561BB08954423E6
:1002E000C9F1413009F06EC0813099F0813030F0B1
:1002F0008230D1F0833009F065C021C02AB381E09B
:1003000090E002C0880F991F6A95E2F7282B2ABB5C
:10031000089527B381E090E002C0880F991F6A9585
:10032000E2F7282B27BB089524B381E090E002C0B8
:10033000880F991F6A95E2F7282B24BB089521B3F3
:1003400081E090E002C0880F991F6A95E2F7282BA0
:1003500021BB0895813099F0813028F08230D9F0A6
:10036000833081F524C02AB381E090E002C0880F79
:10037000991F6A95E2F7809582238ABB089527B377
:1003800081E090E002C0880F991F6A95E2F780959E
:10039000822387BB089524B381E090E002C0880FD8
:1003A000991F6A95E2F78095822384BB089521B353
:1003B00081E090E002C0880F991F6A95E2F780956E
:1003C000822381BB0895813049F0813028F082304A
:1003D00039F0833041F406C06BBB089567BB0895C4
:1003E00064BB089561BB08954423C9F1413009F00D
:1003F0006EC0813099F0813030F08230D1F083309E
:1004000009F065C021C02BB381E090E002C0880FE5
:10041000991F6A95E2F7282B2BBB089528B381E03A
:1004200090E002C0880F991F6A95E2F7282B28BB3D
:10043000089525B381E090E002C0880F991F6A9566
:10044000E2F7282B25BB089522B381E090E002C09B
:10045000880F991F6A95E2F7282B22BB08958130F7
:1004600099F0813028F08230D9F0833081F524C0B2
:100470002BB381E090E002C0880F991F6A95E2F7E4
:10048000809582238BBB089528B381E090E002C061
:10049000880F991F6A95E2F78095822388BB08959B
:1004A00025B381E090E002C0880F991F6A95E2F7BA
:1004B0008095822385BB089522B381E090E002C03D
:1004C000880F991F6A95E2F78095822382BB089571
:1004D000FB01813049F0813028F0823039F08330DF
:1004E00051F407C089B303C086B301C083B38083CE
:1004F000089580B380830895FA01813049F08130F6
:1005000028F0823039F08330C1F40EC089B303C0C3
:1005100086B301C083B390E002C0959587956A9534
:10052000E2F781708083089580B390E002C09595D2
:1005300087956A95E2F7817080830895813091F004
:10054000813028F08230C9F0833061F521C02BB3AF
:1005500081E090E002C0880F991F6A95E2F7282792
:100560002BBB089528B381E090E002C0880F991F4B
:100570006A95E2F7282728BB089525B381E090E02B
:1005800002C0880F991F6A95E2F7282725BB0895B6
:1005900022B381E090E002C0880F991F6A95E2F7CC
:1005A000282722BB0895813091F0813028F08230D5
:1005B000C9F0833061F521C02BB381E090E002C027
:1005C000880F991F6A95E2F7282B2BBB089528B353
:1005D00081E090E002C0880F991F6A95E2F7282B0E
:1005E00028BB089525B381E090E002C0880F991FD1
:1005F0006A95E2F7282B25BB089522B381E090E0AD
:1006000002C0880F991F6A95E2F7282B22BB089534
:100610006F927F929F92AF92BF92CF92DF92EF92B2
:10062000FF920F931F93DF93CF930F92CDB7DEB757
:100630001982CC2400E010E05E010894A11CB11CDA
:1006400020E2622E2EE4722E902E83E0602F40E096
:100650000E94F40190E6E92E90E0F92EE00EF11EE2
:1006600083E0D82E83E06D2DA5010E947C02898154
:10067000882371F4F701C08005C083E06D2DA501CA
:100680000E947C0289818823C1F3C3010197F1F79D
:10069000D39483E090E0E80EF91E97E0D91611F7A5
:1006A00083E0692D41E00E94F4010F5F1F4F03308A
:1006B000110551F68C2D0F90CF91DF911F910F9165
:1006C000FF90EF90DF90CF90BF90AF909F907F9082
:1006D0006F90089583E060E041E00E946F0183E045
:1006E00061E041E00E946F0183E062E041E00E942E
:1006F0006F0183E063E040E00E946F0183E064E00B
:1007000040E00E946F0183E065E040E00E946F01DD
:1007100083E066E040E00E946F0183E063E00E94B6
:10072000D30283E064E00E94D30283E065E00E948C
:10073000D30283E066E00E94D30283E060E041E000
:100740000E94F40183E061E041E00E94F40183E053
:1007500062E041E00E94F4010895EF92FF921F933E
:10076000182F81E061E041E00E94F40181E063E044
:1007700040E00E94F40181E062E040E00E94F40168
:10078000812F807F8BBB81E063E041E00E94F40118
:1007900080EDE82E87E0F82EC7010197F1F781E0A0
:1007A00063E040E00E94F4011295107F1BBB81E0E2
:1007B00063E041E00E94F401C7010197F1F781E095
:1007C00063E040E00E94F40180E197E20197F1F7D5
:1007D0001F91FF90EF9008959F92AF92BF92CF929A
:1007E000DF92EF92FF920F931F935B016C0197FFD3
:1007F0000BC08DE20E94AD03D094C094B094A0943D
:10080000A11CB11CC11CD11CC601B5019924939433
:100810001AE00DC02AE030E040E050E00E94C4053C
:10082000C901DA01BC01CD01919E902C1124611502
:1008300071058105910571F71EC0892D6AE00E943E
:10084000A505982EE82EFF2400E010E0C601B501B2
:10085000A80197010E94C405822F805D0E94AD030C
:10086000C601B501A80197010E94C405AC01CB01E6
:10087000DA015C016D0181E08915F8F21F910F9199
:10088000FF90EF90DF90CF90BF90AF909F90089532
:100890001F93CF93DF93EC0110E003C00E94AD03E0
:1008A0001F5FE12FF0E0EE0FFF1FEE0FFF1FEC0FB9
:1008B000FD1F80819181A281B3810097A105B105BF
:1008C00069F7DF91CF911F910895FF920F931F93C6
:1008D000F82E81E061E040E00E94F40181E063E0F5
:1008E00040E00E94F40181E062E040E00E94F401F7
:1008F0008BB39F2D907F8F70982B9BBB81E063E023
:1009000041E00E94F40100ED17E0C8010197F1F702
:1009100081E063E040E00E94F4018BB3F29420EFA9
:10092000F2228F708F298BBB81E063E041E00E944F
:10093000F401C8010197F1F781E063E040E00E9413
:10094000F40180E197E20197F1F71F910F91FF9079
:10095000089581E00E9465040895DF93CF9300D04D
:10096000CDB7DEB790E8998390EC9A83FE01E80F4B
:10097000F11D8181860F0E9465040F900F90CF9129
:10098000DF91089581E061E041E00E946F0181E024
:1009900062E041E00E946F0181E063E041E00E947B
:1009A0006F0180E064E041E00E946F0180E065E05B
:1009B00041E00E946F0180E066E041E00E946F012B
:1009C00080E067E041E00E946F0188EE93E028EC50
:1009D00030E0F9013197F1F70197D9F783E30E94ED
:1009E000650482E30E94650488E20E9465048CE04D
:1009F0000E94650481E00E94650486E00E9465040F
:100A000082E00E946504089585B394E0892785BB40
:100A10000895A79A0895AF9A0895AF98089585B359
:100A2000805885BB0895D09A0895D89A0895D8988B
:100A300008958BB391E089278BBB0895D29A0895CE
:100A4000DA9A0895DA9808958BB394E089278BBBDE
:100A5000089582E062E040E00E94F401089582E09F
:100A600062E041E00E94F401089582E062E041E02A
:100A70000E946F01089583B7886483BF83B7806243
:100A800083BF0895982F80E064E670E00E94B1056E
:100A900061506CBF089583B7836083BF08958FB999
:100AA000779BFECF8FB1089581E064E041E00E9422
:100AB000F401089581E064E040E00E94F4010895AB
:100AC00081E064E040E00E946F0181E065E040E089
:100AD0000E946F0181E066E041E00E946F0181E0C9
:100AE00067E040E00E946F0183E48DB9089581E0E2
:100AF00064E041E00E946F0181E065E041E00E9416
:100B00006F0181E066E040E00E946F0181E067E0F4
:100B100041E00E946F0183E58DB908950E94540061
:100B200008950E94490008950E940B010E946005EB
:100B300081E00E94D30088EE93E028EC30E0F901D8
:100B40003197F1F70197D9F7FFCF991B79E004C0EE
:100B5000991F961708F0961B881F7A95C9F78095FC
:100B6000089597FB092E07260AD077FD04D027D0D9
:100B700006D000201AF4709561957F4F0895F6F71E
:100B8000909581959F4F089597FB092E05260ED0CD
:100B900057FD04D028D00AD0001C38F45095409559
:100BA000309521953F4F4F4F5F4F0895F6F7909541
:100BB0008095709561957F4F8F4F9F4F0895AA1B29
:100BC000BB1B51E107C0AA1FBB1FA617B70710F038
:100BD000A61BB70B881F991F5A95A9F7809590956A
:100BE000BC01CD010895A1E21A2EAA1BBB1BFD0179
:100BF0000DC0AA1FBB1FEE1FFF1FA217B307E407FC
:100C0000F50720F0A21BB30BE40BF50B661F771F53
:100C1000881F991F1A9469F7609570958095909533
:0E0C20009B01AC01BD01CF010895F894FFCFF8
:0C0C2E003132333435363738392A302360
:00000001FF
