:100000000C942A000C943F000C943F000C943F0089
:100010000C943F000C943F000C943F000C943F0064
:100020000C943F000C943F000C943F000C943F0054
:100030000C943F000C943F000C943F000C943F0044
:100040000C943F000C943F000C943F000C943F0034
:100050000C943F0011241FBECFE5D8E0DEBFCDBF1A
:1000600010E0A0E6B0E0E2E2F9E002C005900D92F7
:10007000AE39B107D9F70E9487040C948F040C9411
:10008000000080B38099FECFE8E8F3E13197F1F703
:100090008170089583E060E040E00E948E00089542
:1000A0008BB363E040E00E94130108958BB363E0DB
:1000B00041E00E94130108958BB363E041E00E9488
:1000C0008E0008951F93182F83E063E041E00E94A3
:1000D0008E00812F0E940E04813021F483E063E0C2
:1000E0000E94BD0188EE93E024E630E0F9013197EB
:1000F000F1F70197D9F71F910895813049F08130C8
:1001000028F0823039F0833041F406C06ABB08958C
:1001100067BB089564BB089561BB08954423C9F18A
:10012000413009F06EC0813099F0813030F082307A
:10013000D1F0833009F065C021C02AB381E090E09E
:1001400002C0880F991F6A95E2F7282B2ABB0895F1
:1001500027B381E090E002C0880F991F6A95E2F70B
:10016000282B27BB089524B381E090E002C0880FBC
:10017000991F6A95E2F7282B24BB089521B381E0EB
:1001800090E002C0880F991F6A95E2F7282B21BBE7
:100190000895813099F0813028F08230D9F0833091
:1001A00081F524C02AB381E090E002C0880F991F36
:1001B0006A95E2F7809582238ABB089527B381E090
:1001C00090E002C0880F991F6A95E2F7809582231C
:1001D00087BB089524B381E090E002C0880F991F87
:1001E0006A95E2F78095822384BB089521B381E06C
:1001F00090E002C0880F991F6A95E2F780958223EC
:1002000081BB0895813049F0813028F0823039F087
:10021000833041F406C06BBB089567BB089564BB8F
:10022000089561BB08954423C9F1413009F06EC0BF
:10023000813099F0813030F08230D1F0833009F094
:1002400065C021C02BB381E090E002C0880F991FE8
:100250006A95E2F7282B2BBB089528B381E090E044
:1002600002C0880F991F6A95E2F7282B28BB0895D2
:1002700025B381E090E002C0880F991F6A95E2F7EC
:10028000282B25BB089522B381E090E002C0880F9F
:10029000991F6A95E2F7282B22BB0895813099F0C7
:1002A000813028F08230D9F0833081F524C02BB31F
:1002B00081E090E002C0880F991F6A95E2F780956F
:1002C00082238BBB089528B381E090E002C0880FA1
:1002D000991F6A95E2F78095822388BB089525B31C
:1002E00081E090E002C0880F991F6A95E2F780953F
:1002F000822385BB089522B381E090E002C0880F7D
:10030000991F6A95E2F78095822382BB0895FB01CD
:10031000813049F0813028F0823039F0833051F457
:1003200007C089B303C086B301C083B38083089537
:1003300080B380830895FA01813049F0813028F03C
:10034000823039F08330C1F40EC089B303C086B364
:1003500001C083B390E002C0959587956A95E2F756
:1003600081708083089580B390E002C09595879551
:100370006A95E2F7817080830895813091F0813031
:1003800028F08230C9F0833061F521C02BB381E0C1
:1003900090E002C0880F991F6A95E2F728272BBBCF
:1003A000089528B381E090E002C0880F991F6A95F4
:1003B000E2F7282728BB089525B381E090E002C02A
:1003C000880F991F6A95E2F7282725BB089522B365
:1003D00081E090E002C0880F991F6A95E2F7282714
:1003E00022BB0895813091F0813028F08230C9F02D
:1003F000833061F521C02BB381E090E002C0880F0B
:10040000991F6A95E2F7282B2BBB089528B381E04A
:1004100090E002C0880F991F6A95E2F7282B28BB4D
:10042000089525B381E090E002C0880F991F6A9576
:10043000E2F7282B25BB089522B381E090E002C0AB
:10044000880F991F6A95E2F7282B22BB08956F92B7
:100450007F929F92AF92BF92CF92DF92EF92FF92E4
:100460000F931F93DF93CF930F92CDB7DEB719820F
:10047000CC2400E010E05E010894A11CB11C20E433
:10048000622E2CE9722E902E83E0602F40E00E94B5
:10049000130192E9E92E90E0F92EE00EF11E83E0BF
:1004A000D82E83E06D2DA5010E949B0189818823B0
:1004B00071F4F701C08005C083E06D2DA5010E9495
:1004C0009B0189818823C1F3C3010197F1F7D3947C
:1004D00083E090E0E80EF91E97E0D91611F783E06B
:1004E000692D41E00E9413010F5F1F4F033011057A
:1004F00051F68C2D0F90CF91DF911F910F91FF90AE
:10050000EF90DF90CF90BF90AF909F907F906F90D3
:10051000089583E060E041E00E948E0083E061E0A6
:1005200041E00E948E0083E062E041E00E948E0084
:1005300083E063E040E00E948E0083E064E040E0FE
:100540000E948E0083E065E040E00E948E0083E020
:1005500066E040E00E948E0083E063E00E94F201CA
:1005600083E064E00E94F20183E065E00E94F20112
:1005700083E066E00E94F20183E060E041E00E94D7
:10058000130183E061E041E00E94130183E062E037
:1005900041E00E94130108951F93182F81E061E04C
:1005A00041E00E94130181E063E040E00E941301FA
:1005B00081E062E040E00E941301812F807F8BBBCD
:1005C00081E063E041E00E9413018EEE92E001972A
:1005D000F1F781E063E040E00E9413011295107F83
:1005E0001BBB81E063E041E00E94130188EA91E6D1
:1005F0000197F1F781E063E040E00E94130182EE91
:1006000094E00197F1F71F9108951F93CF93DF9323
:10061000EC0110E003C00E94CC021F5FE12FF0E06C
:10062000EE0FFF1FEE0FFF1FEC0FFD1F808191816A
:10063000A281B3810097A105B10569F7DF91CF9140
:100640001F9108951F93182F81E061E040E00E9400
:10065000130181E063E040E00E94130181E062E069
:1006600040E00E9413018BB3912F907F8F70982BE5
:100670009BBB81E063E041E00E9413018EEE92E0BB
:100680000197F1F781E063E040E00E9413018BB332
:100690001295107F8F70812B8BBB81E063E041E06E
:1006A0000E9413018AEF90E00197F1F781E063E087
:1006B00040E00E94130182EE94E00197F1F71F9150
:1006C000089581E00E9422030895DF93CF9300D024
:1006D000CDB7DEB790E8998390EC9A83FE01E80FDE
:1006E000F11D8181860F0E9422030F900F90CF9100
:1006F000DF91089581E061E041E00E948E0081E099
:1007000062E041E00E948E0081E063E041E00E94EF
:100710008E0080E064E041E00E948E0080E065E0B1
:1007200041E00E948E0080E066E041E00E948E0081
:1007300080E067E041E00E948E0088EA91E6019740
:10074000F1F783E30E94220382E30E94220388E2FE
:100750000E9422038CE00E94220381E00E94220377
:1007600086E00E94220382E00E94220382EE94E04F
:100770000197F1F7089585B394E0892785BB089523
:10078000A79A0895AF9A0895AF98089585B38058B1
:1007900085BB08958B9A0895939A08959398089528
:1007A00082B398E0892782BB089582E062E040E04E
:1007B0000E941301089582E062E041E00E9413016B
:1007C000089582E062E041E00E948E000895DF9388
:1007D000CF9300D000D0CDB7DEB70E9427028AE2C7
:1007E0000E94CC020E9427028AE20E94CC020E9450
:1007F00027028AE20E94CC020E9427028AE20E941B
:10080000CC0290E08D81893309F491E0892F0F901B
:100810000F900F900F90CF91DF9108958FB9779B34
:10082000FECF8FB1089581E064E041E00E941301A2
:10083000089581E064E040E00E941301089581E0A2
:1008400064E040E00E948E0081E065E040E00E94AC
:100850008E0081E066E041E00E948E0081E067E06A
:1008600040E00E948E0083E48DB9089581E064E049
:1008700041E00E948E0081E065E041E00E948E0030
:1008800081E066E040E00E948E0081E067E041E0A8
:100890000E948E0083E58DB908955D9BFECF8CB9D3
:1008A000089520E004C05D9BFECFECB92F5FFC01F2
:1008B000E20FF11DE081EE23B1F708955F9BFECFBB
:1008C0008CB10895E0E6F0E004C05F9BFECF8CB1F0
:1008D000819380818823C9F780E690E0089583E0C2
:1008E00060E040E00E948E0083E061E041E00E9411
:1008F0008E008AB188618AB980B5866880BD83E33D
:1009000089B908950E946F040E945E0408950E94B0
:1009100036040E94190483E40E946200FCCFF8941C
:02092000FFCF07
:100922004E00000000000000000000000000000077
:1009320000000000000000000000000000000000B5
:1009420000000000000000000000000000000000A5
:0E09520000003132333435363738392A30233D
:00000001FF
