:100000000C942A000C943F000C943F000C943F0089
:100010000C943F000C943F000C943F000C943F0064
:100020000C943F000C943F000C943F000C943F0054
:100030000C943F000C943F000C943F000C943F0044
:100040000C943F000C943F000C943F000C943F0034
:100050000C943F0011241FBECFE5D8E0DEBFCDBF1A
:1000600010E0A0E6B0E0E8E5FAE002C005900D92ED
:10007000A239B107D9F70E94B7040C942A050C9451
:1000800000003E9A3F98389A3D98359A309A319AB6
:10009000329A3398379A0895FC01369A349BFECFF2
:1000A00024B135B184EF91E0AC01249FC001259FBC
:1000B000900D349F900D1124892F8695869580830D
:1000C0001182089580E063E040E00E94600108959D
:1000D00080E063E041E00E946001089580E063E019
:1000E00041E00E94600180E197E229E130E0F901FE
:1000F0003197F1F70197D9F780E063E040E00E9483
:100100006001089580E063E041E00E94DB00089513
:1001100082E063E040E00E94600182E064E040E051
:100120000E9460010895882319F08130B1F40BC05A
:1001300082E063E041E00E94600182E064E040E030
:100140000E946001089582E063E040E00E94600147
:1001500082E064E041E00E94600108950E9408048A
:1001600008959AE0899F802D11240E94FF0308952D
:1001700082E063E041E00E94DB0082E064E041E075
:100180000E94DB0081E063E041E00E94DB000E940E
:10019000F8030895813049F0813028F0823039F039
:1001A000833041F406C06ABB089567BB089564BB01
:1001B000089561BB08954423C9F1413009F06EC030
:1001C000813099F0813030F08230D1F0833009F005
:1001D00065C021C02AB381E090E002C0880F991F5A
:1001E0006A95E2F7282B2ABB089527B381E090E0B7
:1001F00002C0880F991F6A95E2F7282B27BB089544
:1002000024B381E090E002C0880F991F6A95E2F75D
:10021000282B24BB089521B381E090E002C0880F11
:10022000991F6A95E2F7282B21BB0895813099F038
:10023000813028F08230D9F0833081F524C02AB390
:1002400081E090E002C0880F991F6A95E2F78095DF
:1002500082238ABB089527B381E090E002C0880F13
:10026000991F6A95E2F78095822387BB089524B38E
:1002700081E090E002C0880F991F6A95E2F78095AF
:10028000822384BB089521B381E090E002C0880FEF
:10029000991F6A95E2F78095822381BB089581308A
:1002A00049F0813028F0823039F0833041F406C0C3
:1002B0006BBB089567BB089564BB089561BB089547
:1002C0004423C9F1413009F06EC0813099F081308A
:1002D00030F08230D1F0833009F065C021C02BB3FB
:1002E00081E090E002C0880F991F6A95E2F7282B01
:1002F0002BBB089528B381E090E002C0880F991FBE
:100300006A95E2F7282B28BB089525B381E090E099
:1003100002C0880F991F6A95E2F7282B25BB089524
:1003200022B381E090E002C0880F991F6A95E2F73E
:10033000282B22BB0895813099F0813028F082303B
:10034000D9F0833081F524C02BB381E090E002C066
:10035000880F991F6A95E2F7809582238BBB0895D9
:1003600028B381E090E002C0880F991F6A95E2F7F8
:100370008095822388BB089525B381E090E002C078
:10038000880F991F6A95E2F78095822385BB0895AF
:1003900022B381E090E002C0880F991F6A95E2F7CE
:1003A0008095822382BB0895FB01813049F0813022
:1003B00028F0823039F0833051F407C089B303C08C
:1003C00086B301C083B38083089580B3808308958A
:1003D000FA01813049F0813028F0823039F08330E1
:1003E000C1F40EC089B303C086B301C083B390E0EB
:1003F00002C0959587956A95E2F78170808308958C
:1004000080B390E002C0959587956A95E2F7817078
:1004100080830895813091F0813028F08230C9F0D6
:10042000833061F521C02BB381E090E002C0880FDA
:10043000991F6A95E2F728272BBB089528B381E01E
:1004400090E002C0880F991F6A95E2F7282728BB21
:10045000089525B381E090E002C0880F991F6A9546
:10046000E2F7282725BB089522B381E090E002C07F
:10047000880F991F6A95E2F7282722BB08958130DB
:1004800091F0813028F08230C9F0833061F521C0CD
:100490002BB381E090E002C0880F991F6A95E2F7C4
:1004A000282B2BBB089528B381E090E002C0880F71
:1004B000991F6A95E2F7282B28BB089525B381E0A0
:1004C00090E002C0880F991F6A95E2F7282B25BBA0
:1004D000089522B381E090E002C0880F991F6A95C9
:1004E000E2F7282B22BB08951F93182F81E061E0CB
:1004F00041E00E94600181E063E040E00E94600111
:1005000081E062E040E00E946001812F807F8BBB30
:1005100081E063E041E00E9460018EEE92E001978D
:10052000F1F781E063E040E00E9460011295107FE6
:100530001BBB81E063E041E00E94600188EA91E634
:100540000197F1F781E063E040E00E94600182EEF4
:1005500094E00197F1F71F9108959F92AF92BF9297
:10056000CF92DF92EF92FF920F931F93DF93CF937F
:100570000F92CDB7DEB75B016C01992493941AE01A
:100580000DC02AE030E040E050E00E94D904C901EB
:10059000DA01BC01CD01919E902C112461157105E9
:1005A0008105910571F727C0892D6AE00E94BA0480
:1005B000982EE82EFF2400E010E0C601B501A80146
:1005C00097010E94D904922FD7FE06C08DE229839D
:1005D0000E94740299819195892F805D0E94740216
:1005E000C601B501A80197010E94D904AC01CB0155
:1005F000DA015C016D0181E08915B0F20F90CF91B5
:10060000DF911F910F91FF90EF90DF90CF90BF90FF
:10061000AF909F9008951F93CF93DF93EC0110E06C
:1006200003C00E9474021F5FE12FF0E0EE0FFF1F76
:10063000EE0FFF1FEC0FFD1F80819181A281B3811E
:100640000097A105B10569F7DF91CF911F9108953A
:100650001F93182F81E061E040E00E94600181E07B
:1006600063E040E00E94600181E062E040E00E94BF
:1006700060018BB3912F907F8F70982B9BBB81E093
:1006800063E041E00E9460018EEE92E00197F1F795
:1006900081E063E040E00E9460018BB31295107F1F
:1006A0008F70812B8BBB81E063E041E00E94600191
:1006B0008AEF90E00197F1F781E063E040E00E946B
:1006C000600182EE94E00197F1F71F91089581E0B7
:1006D0000E9428030895DF93CF9300D0CDB7DEB7F3
:1006E00090E8998390EC9A83FE01E80FF11D8181D7
:1006F000860F0E9428030F900F90CF91DF910895ED
:1007000081E061E041E00E94DB0081E062E041E0E5
:100710000E94DB0081E063E041E00E94DB0080E0BA
:1007200064E041E00E94DB0080E065E041E00E947F
:10073000DB0080E066E041E00E94DB0080E067E0F3
:1007400041E00E94DB0088EA91E60197F1F783E33C
:100750000E94280382E30E94280388E20E94280363
:100760008CE00E94280381E00E94280386E00E941A
:10077000280382E00E94280382EE94E00197F1F7BB
:10078000089585B394E0892785BB0895A79A0895B5
:10079000AF9A0895AF98089585B3805885BB0895A2
:1007A0008B9A0895939A08959398089582B398E048
:1007B000892782BB0895D29A0895DA9A0895DA9823
:1007C00008958BB394E089278BBB089582E062E0A3
:1007D00040E00E946001089582E062E041E00E94F2
:1007E0006001089582E062E041E00E94DB0008952C
:1007F00083B7886483BF83B7806283BF0895982FCF
:1008000080E064E670E00E94C60461506CBF089509
:1008100083B7836083BF08950E944C0008950E94AF
:10082000410008955D9BFECF8CB9089520E004C07F
:100830005D9BFECFECB92F5FFC01E20FF11DE08163
:10084000EE23B1F708955F9BFECF8CB10895E0E6EB
:10085000F0E004C05F9BFECF8CB181938081882340
:10086000C9F780E690E0089583E060E040E00E94F0
:10087000DB0083E061E041E00E94DB008AB1886137
:100880008AB980B5866880BD87E689B90895DF9307
:10089000CF9300D0CDB7DEB783E060E040E00E94A8
:1008A000DB001A8219820E9434040E9423048434DB
:1008B00009F440C0853440F48234C1F08334E0F45C
:1008C000813409F03EC00CC0823699F0833618F4AA
:1008D0008136B9F508C0833659F1843691F52FC0B9
:1008E0000E94EC032EC00E94E6032BC00E94C803A6
:1008F00028C00E94CA0325C0CE0101960E940C04A4
:1009000069817A8180E090E00E94AD0289819A81BC
:10091000889758F00E94D60380E00E94930087E0F9
:100920000E94B1000E94AE000CC00E94880009C065
:10093000379807C00E946E000E94D20302C00E9436
:10094000D4030F900F90CF91DF9108950E94F2038E
:100950000E94C6030E94D0030E94DB030E94800312
:100960000E94B8000E9482000E940F0408950E9415
:100970004704FDCF991B79E004C0991F961708F032
:10098000961B881F7A95C9F78095089597FB092EC5
:1009900007260AD077FD04D027D006D000201AF40D
:1009A000709561957F4F0895F6F7909581959F4FCB
:1009B000089597FB092E05260ED057FD04D028D0A8
:1009C0000AD0001C38F450954095309521953F4F42
:1009D0004F4F5F4F0895F6F790958095709561950C
:1009E0007F4F8F4F9F4F0895AA1BBB1B51E107C03C
:1009F000AA1FBB1FA617B70710F0A61BB70B881FAF
:100A0000991F5A95A9F780959095BC01CD0108953D
:100A1000A1E21A2EAA1BBB1BFD010DC0AA1FBB1F02
:100A2000EE1FFF1FA217B307E407F50720F0A21B74
:100A3000B30BE40BF50B661F771F881F991F1A94E1
:100A400069F760957095809590959B01AC01BD010B
:080A5000CF010895F894FFCFD7
:100A58004E00000000000000000000000000000040
:100A6800000000000000000000000000000000007E
:100A7800000000000000000000000000000000006E
:020A880000006C
:00000001FF
